{
  "contractName": "Color",
  "abi": [
    {
      "inputs": [],
      "stateMutability": "nonpayable",
      "type": "constructor"
    },
    {
      "anonymous": false,
      "inputs": [
        {
          "indexed": true,
          "internalType": "address",
          "name": "owner",
          "type": "address"
        },
        {
          "indexed": true,
          "internalType": "address",
          "name": "approved",
          "type": "address"
        },
        {
          "indexed": true,
          "internalType": "uint256",
          "name": "tokenId",
          "type": "uint256"
        }
      ],
      "name": "Approval",
      "type": "event"
    },
    {
      "anonymous": false,
      "inputs": [
        {
          "indexed": true,
          "internalType": "address",
          "name": "owner",
          "type": "address"
        },
        {
          "indexed": true,
          "internalType": "address",
          "name": "operator",
          "type": "address"
        },
        {
          "indexed": false,
          "internalType": "bool",
          "name": "approved",
          "type": "bool"
        }
      ],
      "name": "ApprovalForAll",
      "type": "event"
    },
    {
      "anonymous": false,
      "inputs": [
        {
          "indexed": true,
          "internalType": "address",
          "name": "from",
          "type": "address"
        },
        {
          "indexed": true,
          "internalType": "address",
          "name": "to",
          "type": "address"
        },
        {
          "indexed": true,
          "internalType": "uint256",
          "name": "tokenId",
          "type": "uint256"
        }
      ],
      "name": "Transfer",
      "type": "event"
    },
    {
      "inputs": [
        {
          "internalType": "address",
          "name": "to",
          "type": "address"
        },
        {
          "internalType": "uint256",
          "name": "tokenId",
          "type": "uint256"
        }
      ],
      "name": "approve",
      "outputs": [],
      "stateMutability": "nonpayable",
      "type": "function"
    },
    {
      "inputs": [
        {
          "internalType": "address",
          "name": "owner",
          "type": "address"
        }
      ],
      "name": "balanceOf",
      "outputs": [
        {
          "internalType": "uint256",
          "name": "",
          "type": "uint256"
        }
      ],
      "stateMutability": "view",
      "type": "function",
      "constant": true
    },
    {
      "inputs": [
        {
          "internalType": "uint256",
          "name": "",
          "type": "uint256"
        }
      ],
      "name": "colors",
      "outputs": [
        {
          "internalType": "string",
          "name": "",
          "type": "string"
        }
      ],
      "stateMutability": "view",
      "type": "function",
      "constant": true
    },
    {
      "inputs": [
        {
          "internalType": "uint256",
          "name": "tokenId",
          "type": "uint256"
        }
      ],
      "name": "getApproved",
      "outputs": [
        {
          "internalType": "address",
          "name": "",
          "type": "address"
        }
      ],
      "stateMutability": "view",
      "type": "function",
      "constant": true
    },
    {
      "inputs": [
        {
          "internalType": "address",
          "name": "owner",
          "type": "address"
        },
        {
          "internalType": "address",
          "name": "operator",
          "type": "address"
        }
      ],
      "name": "isApprovedForAll",
      "outputs": [
        {
          "internalType": "bool",
          "name": "",
          "type": "bool"
        }
      ],
      "stateMutability": "view",
      "type": "function",
      "constant": true
    },
    {
      "inputs": [],
      "name": "name",
      "outputs": [
        {
          "internalType": "string",
          "name": "",
          "type": "string"
        }
      ],
      "stateMutability": "view",
      "type": "function",
      "constant": true
    },
    {
      "inputs": [
        {
          "internalType": "uint256",
          "name": "tokenId",
          "type": "uint256"
        }
      ],
      "name": "ownerOf",
      "outputs": [
        {
          "internalType": "address",
          "name": "",
          "type": "address"
        }
      ],
      "stateMutability": "view",
      "type": "function",
      "constant": true
    },
    {
      "inputs": [
        {
          "internalType": "address",
          "name": "from",
          "type": "address"
        },
        {
          "internalType": "address",
          "name": "to",
          "type": "address"
        },
        {
          "internalType": "uint256",
          "name": "tokenId",
          "type": "uint256"
        }
      ],
      "name": "safeTransferFrom",
      "outputs": [],
      "stateMutability": "nonpayable",
      "type": "function"
    },
    {
      "inputs": [
        {
          "internalType": "address",
          "name": "from",
          "type": "address"
        },
        {
          "internalType": "address",
          "name": "to",
          "type": "address"
        },
        {
          "internalType": "uint256",
          "name": "tokenId",
          "type": "uint256"
        },
        {
          "internalType": "bytes",
          "name": "_data",
          "type": "bytes"
        }
      ],
      "name": "safeTransferFrom",
      "outputs": [],
      "stateMutability": "nonpayable",
      "type": "function"
    },
    {
      "inputs": [
        {
          "internalType": "address",
          "name": "operator",
          "type": "address"
        },
        {
          "internalType": "bool",
          "name": "approved",
          "type": "bool"
        }
      ],
      "name": "setApprovalForAll",
      "outputs": [],
      "stateMutability": "nonpayable",
      "type": "function"
    },
    {
      "inputs": [],
      "name": "symbol",
      "outputs": [
        {
          "internalType": "string",
          "name": "",
          "type": "string"
        }
      ],
      "stateMutability": "view",
      "type": "function",
      "constant": true
    },
    {
      "inputs": [
        {
          "internalType": "uint256",
          "name": "index",
          "type": "uint256"
        }
      ],
      "name": "tokenByIndex",
      "outputs": [
        {
          "internalType": "uint256",
          "name": "",
          "type": "uint256"
        }
      ],
      "stateMutability": "view",
      "type": "function",
      "constant": true
    },
    {
      "inputs": [
        {
          "internalType": "address",
          "name": "owner",
          "type": "address"
        },
        {
          "internalType": "uint256",
          "name": "index",
          "type": "uint256"
        }
      ],
      "name": "tokenOfOwnerByIndex",
      "outputs": [
        {
          "internalType": "uint256",
          "name": "",
          "type": "uint256"
        }
      ],
      "stateMutability": "view",
      "type": "function",
      "constant": true
    },
    {
      "inputs": [
        {
          "internalType": "uint256",
          "name": "tokenId",
          "type": "uint256"
        }
      ],
      "name": "tokenURI",
      "outputs": [
        {
          "internalType": "string",
          "name": "",
          "type": "string"
        }
      ],
      "stateMutability": "view",
      "type": "function",
      "constant": true
    },
    {
      "inputs": [],
      "name": "totalSupply",
      "outputs": [
        {
          "internalType": "uint256",
          "name": "",
          "type": "uint256"
        }
      ],
      "stateMutability": "view",
      "type": "function",
      "constant": true
    },
    {
      "inputs": [
        {
          "internalType": "address",
          "name": "from",
          "type": "address"
        },
        {
          "internalType": "address",
          "name": "to",
          "type": "address"
        },
        {
          "internalType": "uint256",
          "name": "tokenId",
          "type": "uint256"
        }
      ],
      "name": "transferFrom",
      "outputs": [],
      "stateMutability": "nonpayable",
      "type": "function"
    },
    {
      "inputs": [
        {
          "internalType": "bytes4",
          "name": "interfaceId",
          "type": "bytes4"
        }
      ],
      "name": "supportsInterface",
      "outputs": [
        {
          "internalType": "bool",
          "name": "",
          "type": "bool"
        }
      ],
      "stateMutability": "view",
      "type": "function",
      "constant": true
    },
    {
      "inputs": [
        {
          "internalType": "string",
          "name": "_color",
          "type": "string"
        }
      ],
      "name": "mint",
      "outputs": [],
      "stateMutability": "nonpayable",
      "type": "function"
    }
  ],
  "bytecode": "0x60806040523480156200001157600080fd5b506040518060400160405280600581526020017f436f6c6f720000000000000000000000000000000000000000000000000000008152506040518060400160405280600581526020017f434f4c4f52000000000000000000000000000000000000000000000000000000815250816000908051906020019062000096929190620000b5565b508051620000ac906001906020840190620000b5565b505050620001b1565b828054620000c3906200015b565b90600052602060002090601f016020900481019282620000e7576000855562000132565b82601f106200010257805160ff191683800117855562000132565b8280016001018555821562000132579182015b828111156200013257825182559160200191906001019062000115565b506200014092915062000144565b5090565b5b8082111562000140576000815560010162000145565b6002810460018216806200017057607f821691505b60208210811415620001ab577f4e487b7100000000000000000000000000000000000000000000000000000000600052602260045260246000fd5b50919050565b611dc680620001c16000396000f3fe608060405234801561001057600080fd5b5060043610610133576000357c0100000000000000000000000000000000000000000000000000000000900480636352211e116100bf578063b88d4fde1161008e578063b88d4fde1461024d578063bd11f69d14610260578063c87b56dd14610273578063d85d3d2714610286578063e985e9c51461029957610133565b80636352211e1461020c57806370a082311461021f57806395d89b4114610232578063a22cb4651461023a57610133565b806318160ddd1161010657806318160ddd146101ab57806323b872dd146101c05780632f745c59146101d357806342842e0e146101e65780634f6ccce7146101f957610133565b806301ffc9a71461013857806306fdde0314610161578063081812fc14610176578063095ea7b314610196575b600080fd5b61014b610146366004611570565b6102ac565b60405161015891906116cd565b60405180910390f35b6101696102bf565b60405161015891906116d8565b6101896101843660046115ee565b610351565b604051610158919061167d565b6101a96101a4366004611547565b6103a0565b005b6101b361043e565b6040516101589190611c47565b6101a96101ce366004611459565b610444565b6101b36101e1366004611547565b61047f565b6101a96101f4366004611459565b6104d4565b6101b36102073660046115ee565b6104ef565b61018961021a3660046115ee565b610550565b6101b361022d36600461140d565b610588565b6101696105cf565b6101a961024836600461150d565b6105de565b6101a961025b366004611494565b6106af565b61016961026e3660046115ee565b6106f1565b6101696102813660046115ee565b61079d565b6101a96102943660046115a8565b610823565b61014b6102a7366004611427565b6108d7565b60006102b782610905565b90505b919050565b6060600080546102ce90611cbf565b80601f01602080910402602001604051908101604052809291908181526020018280546102fa90611cbf565b80156103475780601f1061031c57610100808354040283529160200191610347565b820191906000526020600020905b81548152906001019060200180831161032a57829003601f168201915b5050505050905090565b600061035c82610943565b6103845760405160e560020a62461bcd02815260040161037b90611a19565b60405180910390fd5b50600090815260046020526040902054600160a060020a031690565b60006103ab82610550565b905080600160a060020a031683600160a060020a031614156103e25760405160e560020a62461bcd02815260040161037b90611b30565b80600160a060020a03166103f4610960565b600160a060020a031614806104105750610410816102a7610960565b61042f5760405160e560020a62461bcd02815260040161037b906118cd565b6104398383610964565b505050565b60085490565b61045561044f610960565b826109df565b6104745760405160e560020a62461bcd02815260040161037b90611b8d565b610439838383610a67565b600061048a83610588565b82106104ab5760405160e560020a62461bcd02815260040161037b906116eb565b50600160a060020a03919091166000908152600660209081526040808320938352929052205490565b610439838383604051806020016040528060008152506106af565b60006104f961043e565b821061051a5760405160e560020a62461bcd02815260040161037b90611bea565b6008828154811061053e5760e060020a634e487b7102600052603260045260246000fd5b90600052602060002001549050919050565b600081815260026020526040812054600160a060020a0316806102b75760405160e560020a62461bcd02815260040161037b90611987565b6000600160a060020a0382166105b35760405160e560020a62461bcd02815260040161037b9061192a565b50600160a060020a031660009081526003602052604090205490565b6060600180546102ce90611cbf565b6105e6610960565b600160a060020a031682600160a060020a0316141561061a5760405160e560020a62461bcd02815260040161037b90611839565b8060056000610627610960565b600160a060020a03908116825260208083019390935260409182016000908120918716808252919093529120805460ff19169215159290921790915561066b610960565b600160a060020a03167f17307eab39ab6107e8899845ad3d59bd9653f200f220920489ca2b5937696c31836040516106a391906116cd565b60405180910390a35050565b6106c06106ba610960565b836109df565b6106df5760405160e560020a62461bcd02815260040161037b90611b8d565b6106eb84848484610ba7565b50505050565b600a818154811061070157600080fd5b90600052602060002001600091509050805461071c90611cbf565b80601f016020809104026020016040519081016040528092919081815260200182805461074890611cbf565b80156107955780601f1061076a57610100808354040283529160200191610795565b820191906000526020600020905b81548152906001019060200180831161077857829003601f168201915b505050505081565b60606107a882610943565b6107c75760405160e560020a62461bcd02815260040161037b90611ad3565b60006107d1610bdd565b905060008151116107f1576040518060200160405280600081525061081c565b806107fb84610bef565b60405160200161080c92919061164e565b6040516020818303038152906040525b9392505050565b600b816040516108339190611632565b9081526040519081900360200190205460ff161561085057600080fd5b600a80546001810182556000919091528151610893917fc65a7bb8d6351c1cf70c95a316cc6a92839c986682d98bc35f958f4883f9d2a8019060208401906112ed565b50600a546108a13382610d63565b6001600b836040516108b39190611632565b908152604051908190036020019020805491151560ff199092169190911790555050565b600160a060020a03918216600090815260056020908152604080832093909416825291909152205460ff1690565b6000600160e060020a031982167f780e9d630000000000000000000000000000000000000000000000000000000014806102b757506102b782610e55565b600090815260026020526040902054600160a060020a0316151590565b3390565b6000818152600460205260409020805473ffffffffffffffffffffffffffffffffffffffff1916600160a060020a03841690811790915581906109a682610550565b600160a060020a03167f8c5be1e5ebec7d5bd14f71427d1e84f3dd0314c0f7b2291e5b200ac8c7c3b92560405160405180910390a45050565b60006109ea82610943565b610a095760405160e560020a62461bcd02815260040161037b90611870565b6000610a1483610550565b905080600160a060020a031684600160a060020a03161480610a4f575083600160a060020a0316610a4484610351565b600160a060020a0316145b80610a5f5750610a5f81856108d7565b949350505050565b82600160a060020a0316610a7a82610550565b600160a060020a031614610aa35760405160e560020a62461bcd02815260040161037b90611a76565b600160a060020a038216610acc5760405160e560020a62461bcd02815260040161037b906117dc565b610ad7838383610ec7565b610ae2600082610964565b600160a060020a0383166000908152600360205260408120805460019290610b0b908490611c7c565b9091555050600160a060020a0382166000908152600360205260408120805460019290610b39908490611c50565b9091555050600081815260026020526040808220805473ffffffffffffffffffffffffffffffffffffffff1916600160a060020a0386811691821790925591518493918716917fddf252ad1be2c89b69c2b068fc378daa952ba7f163c4a11628f55a4df523b3ef91a4505050565b610bb2848484610a67565b610bbe84848484610ed2565b6106eb5760405160e560020a62461bcd02815260040161037b90611748565b60408051602081019091526000815290565b606081610c30575060408051808201909152600181527f300000000000000000000000000000000000000000000000000000000000000060208201526102ba565b8160005b8115610c5a5780610c4481611cfd565b9150610c539050600a83611c68565b9150610c34565b60008167ffffffffffffffff811115610c865760e060020a634e487b7102600052604160045260246000fd5b6040519080825280601f01601f191660200182016040528015610cb0576020820181803683370190505b5090505b8415610a5f57610cc5600183611c7c565b9150610cd2600a86611d18565b610cdd906030611c50565b7f010000000000000000000000000000000000000000000000000000000000000002818381518110610d225760e060020a634e487b7102600052603260045260246000fd5b60200101907effffffffffffffffffffffffffffffffffffffffffffffffffffffffffffff1916908160001a905350610d5c600a86611c68565b9450610cb4565b600160a060020a038216610d8c5760405160e560020a62461bcd02815260040161037b906119e4565b610d9581610943565b15610db55760405160e560020a62461bcd02815260040161037b906117a5565b610dc160008383610ec7565b600160a060020a0382166000908152600360205260408120805460019290610dea908490611c50565b9091555050600081815260026020526040808220805473ffffffffffffffffffffffffffffffffffffffff1916600160a060020a03861690811790915590518392907fddf252ad1be2c89b69c2b068fc378daa952ba7f163c4a11628f55a4df523b3ef908290a45050565b6000600160e060020a031982167f80ac58cd000000000000000000000000000000000000000000000000000000001480610eb85750600160e060020a031982167f5b5e139f00000000000000000000000000000000000000000000000000000000145b806102b757506102b782611025565b610439838383611057565b6000610ee684600160a060020a03166110e0565b1561101a5783600160a060020a031663150b7a02610f02610960565b8786866040518563ffffffff167c0100000000000000000000000000000000000000000000000000000000028152600401610f409493929190611691565b602060405180830381600087803b158015610f5a57600080fd5b505af1925050508015610f8a575060408051601f3d908101601f19168201909252610f879181019061158c565b60015b610fe7573d808015610fb8576040519150601f19603f3d011682016040523d82523d6000602084013e610fbd565b606091505b508051610fdf5760405160e560020a62461bcd02815260040161037b90611748565b805181602001fd5b600160e060020a0319167f150b7a0200000000000000000000000000000000000000000000000000000000149050610a5f565b506001949350505050565b600160e060020a031981167f01ffc9a70000000000000000000000000000000000000000000000000000000014919050565b611062838383610439565b600160a060020a03831661107e57611079816110e6565b6110a1565b81600160a060020a031683600160a060020a0316146110a1576110a1838261112a565b600160a060020a0382166110bd576110b8816111c7565b610439565b82600160a060020a031682600160a060020a0316146104395761043982826112a9565b3b151590565b600880546000838152600960205260408120829055600182018355919091527ff3f7a9fe364faab93b216da50a3214154f22a0a2b415b23a84c8169e8b636ee30155565b6000600161113784610588565b6111419190611c7c565b60008381526007602052604090205490915080821461119457600160a060020a03841660009081526006602090815260408083208584528252808320548484528184208190558352600790915290208190555b506000918252600760209081526040808420849055600160a060020a039094168352600681528383209183525290812055565b6008546000906111d990600190611c7c565b600083815260096020526040812054600880549394509092849081106112125760e060020a634e487b7102600052603260045260246000fd5b9060005260206000200154905080600883815481106112445760e060020a634e487b7102600052603260045260246000fd5b600091825260208083209091019290925582815260099091526040808220849055858252812055600880548061128d5760e060020a634e487b7102600052603160045260246000fd5b6001900381819060005260206000200160009055905550505050565b60006112b483610588565b600160a060020a039093166000908152600660209081526040808320868452825280832085905593825260079052919091209190915550565b8280546112f990611cbf565b90600052602060002090601f01602090048101928261131b5760008555611361565b82601f1061133457805160ff1916838001178555611361565b82800160010185558215611361579182015b82811115611361578251825591602001919060010190611346565b5061136d929150611371565b5090565b5b8082111561136d5760008155600101611372565b600067ffffffffffffffff808411156113a1576113a1611d5e565b604051601f8501601f1916810160200182811182821017156113c5576113c5611d5e565b6040528481529150818385018610156113dd57600080fd5b8484602083013760006020868301015250509392505050565b8035600160a060020a03811681146102ba57600080fd5b60006020828403121561141e578081fd5b61081c826113f6565b60008060408385031215611439578081fd5b611442836113f6565b9150611450602084016113f6565b90509250929050565b60008060006060848603121561146d578081fd5b611476846113f6565b9250611484602085016113f6565b9150604084013590509250925092565b600080600080608085870312156114a9578081fd5b6114b2856113f6565b93506114c0602086016113f6565b925060408501359150606085013567ffffffffffffffff8111156114e2578182fd5b8501601f810187136114f2578182fd5b61150187823560208401611386565b91505092959194509250565b6000806040838503121561151f578182fd5b611528836113f6565b91506020830135801515811461153c578182fd5b809150509250929050565b60008060408385031215611559578182fd5b611562836113f6565b946020939093013593505050565b600060208284031215611581578081fd5b813561081c81611d77565b60006020828403121561159d578081fd5b815161081c81611d77565b6000602082840312156115b9578081fd5b813567ffffffffffffffff8111156115cf578182fd5b8201601f810184136115df578182fd5b610a5f84823560208401611386565b6000602082840312156115ff578081fd5b5035919050565b6000815180845261161e816020860160208601611c93565b601f01601f19169290920160200192915050565b60008251611644818460208701611c93565b9190910192915050565b60008351611660818460208801611c93565b835190830190611674818360208801611c93565b01949350505050565b600160a060020a0391909116815260200190565b6000600160a060020a038087168352808616602084015250836040830152608060608301526116c36080830184611606565b9695505050505050565b901515815260200190565b60006020825261081c6020830184611606565b6020808252602b908201527f455243373231456e756d657261626c653a206f776e657220696e646578206f7560408201527f74206f6620626f756e6473000000000000000000000000000000000000000000606082015260800190565b60208082526032908201527f4552433732313a207472616e7366657220746f206e6f6e20455243373231526560408201527f63656976657220696d706c656d656e7465720000000000000000000000000000606082015260800190565b6020808252601c908201527f4552433732313a20746f6b656e20616c7265616479206d696e74656400000000604082015260600190565b60208082526024908201527f4552433732313a207472616e7366657220746f20746865207a65726f2061646460408201527f7265737300000000000000000000000000000000000000000000000000000000606082015260800190565b60208082526019908201527f4552433732313a20617070726f766520746f2063616c6c657200000000000000604082015260600190565b6020808252602c908201527f4552433732313a206f70657261746f7220717565727920666f72206e6f6e657860408201527f697374656e7420746f6b656e0000000000000000000000000000000000000000606082015260800190565b60208082526038908201527f4552433732313a20617070726f76652063616c6c6572206973206e6f74206f7760408201527f6e6572206e6f7220617070726f76656420666f7220616c6c0000000000000000606082015260800190565b6020808252602a908201527f4552433732313a2062616c616e636520717565727920666f7220746865207a6560408201527f726f206164647265737300000000000000000000000000000000000000000000606082015260800190565b60208082526029908201527f4552433732313a206f776e657220717565727920666f72206e6f6e657869737460408201527f656e7420746f6b656e0000000000000000000000000000000000000000000000606082015260800190565b6020808252818101527f4552433732313a206d696e7420746f20746865207a65726f2061646472657373604082015260600190565b6020808252602c908201527f4552433732313a20617070726f76656420717565727920666f72206e6f6e657860408201527f697374656e7420746f6b656e0000000000000000000000000000000000000000606082015260800190565b60208082526029908201527f4552433732313a207472616e73666572206f6620746f6b656e2074686174206960408201527f73206e6f74206f776e0000000000000000000000000000000000000000000000606082015260800190565b6020808252602f908201527f4552433732314d657461646174613a2055524920717565727920666f72206e6f60408201527f6e6578697374656e7420746f6b656e0000000000000000000000000000000000606082015260800190565b60208082526021908201527f4552433732313a20617070726f76616c20746f2063757272656e74206f776e6560408201527f7200000000000000000000000000000000000000000000000000000000000000606082015260800190565b60208082526031908201527f4552433732313a207472616e736665722063616c6c6572206973206e6f74206f60408201527f776e6572206e6f7220617070726f766564000000000000000000000000000000606082015260800190565b6020808252602c908201527f455243373231456e756d657261626c653a20676c6f62616c20696e646578206f60408201527f7574206f6620626f756e64730000000000000000000000000000000000000000606082015260800190565b90815260200190565b60008219821115611c6357611c63611d2c565b500190565b600082611c7757611c77611d45565b500490565b600082821015611c8e57611c8e611d2c565b500390565b60005b83811015611cae578181015183820152602001611c96565b838111156106eb5750506000910152565b600281046001821680611cd357607f821691505b60208210811415611cf75760e060020a634e487b7102600052602260045260246000fd5b50919050565b6000600019821415611d1157611d11611d2c565b5060010190565b600082611d2757611d27611d45565b500690565b60e060020a634e487b7102600052601160045260246000fd5b60e060020a634e487b7102600052601260045260246000fd5b60e060020a634e487b7102600052604160045260246000fd5b600160e060020a031981168114611d8d57600080fd5b5056fea2646970667358221220ac0f23d6001a5938ddd4fc003a98c694caf416733cda7b8fa3aa2b58fda11ba664736f6c63430008000033",
  "immutableReferences": {},
  "source": "//SPDX-License-Identifier: UNLICENSED\r\npragma solidity 0.8.0;\r\n\r\nimport \"@openzeppelin/contracts/token/ERC721/ERC721.sol\";\r\nimport \"@openzeppelin/contracts/token/ERC721/extensions/ERC721Enumerable.sol\";\r\n\r\ncontract Color is ERC721, ERC721Enumerable {\r\n    string[] public colors;\r\n    mapping(string => bool) _colorExists;\r\n    constructor()\r\n    public\r\n    ERC721(\"Color\", \"COLOR\") {}\r\n\r\n    function _beforeTokenTransfer(address from, address to, uint amount)\r\n    internal virtual override(ERC721, ERC721Enumerable)\r\n    {\r\n        super._beforeTokenTransfer(from, to, amount);\r\n    }\r\n\r\n    function supportsInterface(bytes4 interfaceId)\r\n    public view override(ERC721, ERC721Enumerable)\r\n    returns (bool)\r\n    {\r\n        return super.supportsInterface(interfaceId);\r\n    }\r\n\r\n    function mint(string memory _color) public {\r\n        require(!_colorExists[_color]);\r\n        colors.push(_color);\r\n        uint _id = colors.length;\r\n        _mint(msg.sender, _id);\r\n        _colorExists[_color] = true;\r\n    }\r\n}",
  "sourcePath": "C:\\Consensys\\dapp-nft\\contracts\\Color.sol",
  "compiler": {
    "name": "solc",
    "version": "0.8.0+commit.c7dfd78e.Emscripten.clang"
  },
  "schemaVersion": "3.4.3",
  "updatedAt": "2021-10-28T14:32:22.315Z",
  "networkType": "ethereum",
  "devdoc": {
    "kind": "dev",
    "methods": {
      "approve(address,uint256)": {
        "details": "See {IERC721-approve}."
      },
      "balanceOf(address)": {
        "details": "See {IERC721-balanceOf}."
      },
      "getApproved(uint256)": {
        "details": "See {IERC721-getApproved}."
      },
      "isApprovedForAll(address,address)": {
        "details": "See {IERC721-isApprovedForAll}."
      },
      "name()": {
        "details": "See {IERC721Metadata-name}."
      },
      "ownerOf(uint256)": {
        "details": "See {IERC721-ownerOf}."
      },
      "safeTransferFrom(address,address,uint256)": {
        "details": "See {IERC721-safeTransferFrom}."
      },
      "safeTransferFrom(address,address,uint256,bytes)": {
        "details": "See {IERC721-safeTransferFrom}."
      },
      "setApprovalForAll(address,bool)": {
        "details": "See {IERC721-setApprovalForAll}."
      },
      "symbol()": {
        "details": "See {IERC721Metadata-symbol}."
      },
      "tokenByIndex(uint256)": {
        "details": "See {IERC721Enumerable-tokenByIndex}."
      },
      "tokenOfOwnerByIndex(address,uint256)": {
        "details": "See {IERC721Enumerable-tokenOfOwnerByIndex}."
      },
      "tokenURI(uint256)": {
        "details": "See {IERC721Metadata-tokenURI}."
      },
      "totalSupply()": {
        "details": "See {IERC721Enumerable-totalSupply}."
      },
      "transferFrom(address,address,uint256)": {
        "details": "See {IERC721-transferFrom}."
      }
    },
    "version": 1
  },
  "userdoc": {
    "kind": "user",
    "methods": {},
    "version": 1
  }
}